:020000040800F2
:1000000030090020D5010008D5120008490C00086D
:1000100099120008AD07000823290008000000001D
:10002000000000000000000000000000651500084E
:10003000990A0008000000000D1400087916000855
:10004000EF010008EF010008EF010008EF010008D0
:10005000EF010008EF010008EF010008EF010008C0
:10006000EF010008EF010008EF010008EF010008B0
:10007000EF010008EF010008EF010008EF010008A0
:10008000EF010008EF010008EF010008EF01000890
:10009000EF010008EF010008EF010008EF01000880
:1000A000EF0100081D190008EF010008EF0100082A
:1000B000EF010008EF010008A11C0008EF01000893
:1000C000EF010008EF010008EF010008EF01000850
:1000D000EF01000801270008EF010008EF01000808
:1000E000EF010008EF010008EF010008EF01000830
:1000F000EF010008EF010008EF010008EF01000820
:10010000EF010008EF010008EF010008EF0100080F
:10011000EF010008EF010008EF010008EF010008FF
:10012000EF010008EF010008EF010008EF010008EF
:1001300000F002F800F03FF80AA090E8000C8244BA
:100140008344AAF10107DA4501D100F034F8AFF297
:10015000090EBAE80F0013F0010F18BFFB1A43F0A5
:100160000103184784790000A4790000103A24BFE5
:1001700078C878C1FAD8520724BF30C830C144BF0C
:1001800004680C607047000000230024002500264E
:10019000103A28BF78C1FBD8520728BF30C148BFEA
:1001A0000B607047642900F06780002070471FB51E
:1001B0001FBD10B510BD00F0CBFA1146FFF7F7FFD9
:1001C00004F072F900F0E9FA03B4FFF7F2FF03BCA0
:1001D00002F02DFC0948804709480047FEE7FEE78A
:1001E000FEE7FEE7FEE7FEE7FEE7FEE7FEE7FEE7E7
:1001F00004480549054A064B704700007D16000873
:1002000031010008300300203009002030050020B3
:1002100030050020704710B54C1084EA530404D513
:100220004042C1F1000138BF491E1B4204D5524271
:10023000C3F1000338BF5B1E00F02EF914F0804FAD
:1002400004D04042C1F1000138BF491E14F0004FF4
:1002500004D05242C3F1000338BF5B1E10BD000042
:100260000FB4044910B503AA029800F0F1F910BCCC
:100270005DF814FBDC0000202DE9F0410646002467
:1002800010687529314616A510D0AFF300800028FC
:1002900002DA404213A507E031688A0701D512A5AA
:1002A00002E0490704D511A5012401E0AFF3008065
:1002B00000210A2206F1240709E0B0FBF2FCB0FBA2
:1002C000F2F302FB1C00303078541846491C002819
:1002D000F3D123462A463046BDE8F04100F05EB92E
:1002E000000000002D0000002B0000002000000096
:1002F0002DE9F05F894604464FF0000ADFF824B18B
:10030000FB44C0F820A02046E168884700287DD043
:10031000252806D0D4E901219047206A401C20629C
:10032000F1E700255F462046E16888472028064619
:1003300007DB312E05D2B81910F8200C08B105439F
:10034000F1E7A80701D525F00405C4F81CA0002793
:10035000C4F818A02A2E09D0304602F061FB38B349
:1003600004EB8708303EC8F8186019E059F8041B00
:10037000204604EB87029161E1688847012F064619
:1003800018D1E069002820DA25F020051DE0D8F812
:10039000180000EB800006EB40003038C8F8180069
:1003A0002046E1688847064602F03AFB0028EED175
:1003B000012F0AD02E2E08D12046E16888477F1CE5
:1003C0000646022F45F02005C4DBA069002803DAA9
:1003D000404245F00105A061E80701D025F0100575
:1003E000A6B1A6F14100192802D8203645F40065CF
:1003F0004A463146204625604D46FFF7D3FE60B1A0
:10040000012807D0ED1D25F0070000E007E000F10E
:10041000080978E705F1040975E730467AE7206AAC
:10042000BDE8F09F8E76000040EA010310B59B07FF
:100430000FD1042A0DD310C808C9121F9C42F8D04E
:1004400020BA19BA884201D9012010BD4FF0FF30FF
:1004500010BD1AB1D30703D0521C07E0002010BD15
:1004600010F8013B11F8014B1B1B07D110F8013BA1
:1004700011F8014B1B1B01D1921EF1D1184610BD82
:1004800002F0FF0343EA032242EA024200F0F4B81A
:10049000704770477047704753EA020C00F069805C
:1004A0002DE9F04B4FF00006002B1FBFB3FA83F588
:1004B00003FA05F424FA05F65E4012BF1643B2FAB9
:1004C00082F502FA05F4C5F120051EBF22FA05FCEB
:1004D00044EA0C04203556EA044C4FEA144418BF91
:1004E000641C4FF000084FF00009904271EB030CC0
:1004F00039D3002919BFB1FA81F701FA07F6B0FA2A
:1005000080F700FA07F6C7F120071EBF20FA07FCA4
:1005100046EA0C062037B6FBF4FCA7EB0507103FB4
:1005200007F01F0BCBF120060CFA0BFB2CFA06F69A
:1005300044BFB3460026202FA4BF5E464FF0000BF9
:100540005BEA060C08BF4FF0010B19EB0B09ABFB84
:10055000027C48EB0608C01B06FB02CC0BFB03CC5D
:1005600071EB0C01C1E70B46024641464846BDE827
:10057000F08B13B54FF000004FF00001AFF3008097
:10058000BDE81C40704710B500F096F8006810BD3B
:1005900010B5044600F090F8046010BD2DE9F04756
:1005A0000D4699469246044600F1240801688806E3
:1005B00004D5E06921F01001216000E00120A8428B
:1005C00001DD471B00E00027A1697A1902EB090051
:1005D000081AA0612078C00602D42046AFF300803C
:1005E000002608E0D4E901211AF806009047206AA5
:1005F000401C761C20624E45F4DB2078C0060AD5EC
:100600002046AFF3008006E0D4E901213020904776
:10061000206A401C2062381EA7F10107F4DC07E0C5
:10062000D4E9012118F805009047206A401C206297
:10063000281EA5F10105F3DC2046AFF300802078E9
:10064000000602D50220BDE8F0870120FBE700008C
:10065000074B70B50D467B4400F037F8044628463A
:1006600000F046F810B14FF0FF3070BD204670BD6D
:10067000873700004FF000020429C0F0128010F00C
:10068000030C00F03B80CCF1040CBCF1020F18BF4E
:1006900000F8012BA8BF20F8022BA1EB0C0100F001
:1006A0002DB85FEAC17C24BF00F8012B00F8012BB4
:1006B00048BF00F8012B704700487047CC0200206B
:1006C00001694A1C02610878704700B58FB0CDE916
:1006D00001310021059105497944CDE90310114606
:1006E0006846FFF705FE0FB000BD0000E5FFFFFF05
:1006F000007B00F0800070474FF0000200B5134609
:1007000094469646203922BFA0E80C50A0E80C5031
:10071000B1F12001BFF4F7AF090728BFA0E80C50E2
:1007200048BF0CC05DF804EB890028BF40F8042BDB
:1007300008BF704748BF20F8022B11F0804F18BF48
:1007400000F8012B7047000000487047CC020020E1
:100750007546FFF7F9FFAE4605006946534620F09F
:100760000700854618B020B5FFF742FDBDE82040E0
:100770004FF000064FF000074FF000084FF0000B5D
:1007800021F00701AC46ACE8C009ACE8C009ACE810
:10079000C009ACE8C0098D46704710B50446AFF3F8
:1007A00000802046BDE81040FFF70EBD00BFFEE709
:1007B0002DE9F05F8246A0490988A1F2DC5006F0DD
:1007C00079F807469D4905F043FF04469C4909888E
:1007D000A1F2DC5006F06EF80746984905F038FFA4
:1007E000054698490988A1F2DC5006F063F80746EF
:1007F000924905F02DFF06469348008840F251418A
:10080000884239DD224691480168914804F0DEFFB4
:10081000904908609048B0F9000006F04BF8074690
:100820008C48394602688D4804F0D0FF8C49086036
:100830002A468C4801688C4804F0C8FF8B49086040
:100840008B48B0F9000006F035F80746874839466E
:100850000268884804F0BAFF874908608748B0F901
:10086000000006F027F8074632463946844804F06F
:10087000ADFF844908600BE073480088B0F58A6FCB
:1008800006DC00207549C8607A49C8607C49C860A8
:100890006D48008806F026F883467148016858467E
:1008A00006F066F9814674480168484605F062FE24
:1008B000804674480168404605F05CFE074605F036
:1008C000D9FF714908806048008806F00BF883461C
:1008D00063480168584606F04BF98146664801684E
:1008E000484606F045F9804666480168404606F0ED
:1008F0003FF9074605F0BEFF64490880524800886A
:1009000005F0F0FF834656480168584605F032FE70
:10091000814659480168484606F02AF980465948F8
:100920000168404605F026FE074605F0A3FF58493A
:1009300008804548008805F0D5FF8346484801688F
:10094000584605F017FE81464B480168484605F0B9
:1009500011FE80464B480168404606F009F90746FB
:1009600005F088FF4B4908803748008840F2514124
:1009700088424BDD44480088B0F58A6F03DC0846A6
:100980004149088008E040480088B0F5FA6F03DD6F
:100990004FF4FA603C4908803C480088B0F58A6F03
:1009A00004DC40F251403949088008E037480088AB
:1009B000B0F5FA6F03DD4FF4FA603449088034482B
:1009C0000088B0F58A6F04DC40F25140304908805D
:1009D00008E02F480088B0F5FA6F03DD4FF4FA60A5
:1009E0002B4908802B480088B0F58A6F04DC40F260
:1009F00051402849088013E026480088B0F5FA6F76
:100A00000EDD4FF4FA602349088009E04FF47A7054
:100A10001D4908801D4908801D4908801D4908801E
:100A20001C4803881A48028818480188164800881C
:100A300000F034FCBDE8F09F980000200000204149
:100A40009A0000209E0000209C000020140000203E
:100A500008010020840000202800002068010020F8
:100A60008C000020180000203801002088000020A1
:100A70002600002098010020900000202A0000207D
:100A8000C8010020940000207A0000207C00002093
:100A90007E0000208000002070472DE9F0410246D2
:100AA00000250026002000230024002791F803C021
:100AB0000CF00F0591F803C00CF0100CBCF1000F06
:100AC00003D091F802C04CEA050591F800C0BCF1D2
:100AD000000F31D0146800202BE04FF0010C0CFA0D
:100AE00000F3B1F800C00CEA03069E4220D1830057
:100AF0004FF00F0C0CFA03F7BC4305FA03FC4CEA69
:100B0000040491F803C0BCF1280F06D14FF0010C8A
:100B10000CFA00FCC2F814C00AE091F803C0BCF162
:100B2000480F05D14FF0010C0CFA00FCC2F810C0C0
:100B3000401C0828D1D31460B1F800C0BCF1FF0FED
:100B400034DD546800202EE000F1080C4FF001085D
:100B500008FA0CF3B1F800C00CEA03069E4221D15A
:100B600083004FF00F0C0CFA03F7BC4305FA03FCAB
:100B70004CEA040491F803C0BCF1280F05D100F140
:100B8000080C08FA0CF8C2F8148091F803C0BCF104
:100B9000480F07D100F1080C4FF0010808FA0CF8D3
:100BA000C2F81080401C0828CED35460BDE8F08104
:100BB000F0B50A46002300240021002500F000467D
:100BC000B6F1004F02D11D4EF16901E01B4E716874
:100BD000C0F3034583B200F44016B6F5401F08D1B8
:100BE00021F07061154E766826F07066134F7E60B6
:100BF00012E000F48016B6F5801F06D1032606FA2F
:100C000005F4A14341F0706106E0460D360103FA98
:100C100006F6B14341F0706122B1460D360103FA88
:100C200006F6314300F00046B6F1004F02D1034E04
:100C3000F16101E0014E7160F0BD00000000014073
:100C4000416170470161704700BFFEE708B50121AF
:100C5000042000F0FDFB0121084600F0F9FB012112
:100C60000B48FFF7A5FF4FF40040ADF8000010203F
:100C70008DF8030003208DF8020069460548FFF750
:100C80000CFF4FF400410348FFF7DCFF08BD0000F4
:100C900000023000000801402DE9FC4104460D46E9
:100CA00016466B4606223B21682000F01FFA0746D5
:100CB000BFB99DF801009DF8001040EA012000B284
:100CC00020809DF803009DF8021040EA012000B248
:100CD00028809DF805009DF8041040EA012000B22C
:100CE00030803846BDE8FC812DE9FC4104460D46C4
:100CF00016466B4606224321682000F0F7F90746A6
:100D0000BFB99DF801009DF8001040EA012000B233
:100D100020809DF803009DF8021040EA012000B2F7
:100D200028809DF805009DF8041040EA012000B2DB
:100D300030803846BDE8FC812DE9F84F6B46022231
:100D40004121682000F0D2F99DF801009DF80010C3
:100D500040EA01200FFA80FA504605F0EEF880468E
:100D600000220B4B04F062FF06460A4A0A4B04F0CD
:100D7000ADFE044604F078FE83460849584605F067
:100D8000F9FD044605F05AFD00B2BDE8F88F0000F9
:100D900000407540A4703D0AD74342400000C8425D
:100DA00010B500200E4908600E48406820F07060C1
:100DB0000C4948600846406840F040704860002098
:100DC0000949C1F8B80100F011F801200449086090
:100DD00000F00CF800200449C1F8BC0110BD00006F
:100DE000BC012242001001400000224210B5022046
:100DF00002F0F6F910BD000008B50121102000F046
:100E000027FB4FF44040ADF8000010208DF80300A0
:100E100003208DF8020069460448FFF73EFE4FF4B8
:100E200040410248FFF70EFF08BD000000100140DE
:100E300010B500200E4908600E48406820F0706030
:100E40000C4948600846406840F040704860012006
:100E50000949C1F8B801FFF7C9FF0120044908603A
:100E6000FFF7C4FF00200449C1F8BC0110BD000019
:100E7000BC012242001001400000224270B505462C
:100E800000241648406820F0706014494860084605
:100E9000406840F000604860002614E000201049DF
:100EA0000860FFF7A3FF01200E49C1F8BC016006EE
:100EB000040E0B488438006808B1601CC4B2FFF708
:100EC00095FF701CC6B2082EE8DB15B9FFF7B0FF1E
:100ED00001E0FFF765FF204670BD000000100140F3
:100EE000BC0122420000224270B50446124840680C
:100EF00020F07060104948600846406840F040703B
:100F0000486000200D490860002512E0E0090B4907
:100F1000091F08606006040E01200949C1F8BC01E0
:100F2000FFF764FF002005490860FFF75FFF681CBA
:100F3000C5B2082DEADB70BD00100140BC012242A1
:100F40000000224210B50E48406820F070600C4945
:100F500048600846406840F04070486001200949F8
:100F600008600949C1F8BC01FFF740FF00200549AE
:100F70000860FFF73BFF00200349C1F8BC0110BD2A
:100F800000100140B80122420000224210B50E4874
:100F9000406820F070600C4948600846406840F0A6
:100FA000407048600020094908600949C1F8B8014B
:100FB000FFF71CFF0120054908600549C1F8B80189
:100FC000FFF714FF10BD000000100140BC012242D9
:100FD0000000224210B500241448406820F07060E0
:100FE000124948600846406840F0006048600120AF
:100FF0000F490860FFF7FAFE01200E49C1F8BC0155
:10100000FFF7F4FE07E0601CC4B2FA2C03DDFFF723
:10101000BDFF012010BD0648803800680028F2D1CD
:101020000349091D086000BFF4E7000000100140FB
:10103000B80122420000224210B5FFF7DDFE8021F8
:101040006B2000F0D7F8642002F0A4F800216B2098
:1010500000F0D0F8032000F08BF8002000F080F8BA
:10106000322000F0AAF80021382000F0C3F8002157
:101070006A2000F0BFF80021232000F0BBF8802197
:10108000372000F0B7F8752000F013F80446682CFC
:101090000BD101216B2000F0ADF800216C2000F095
:1010A000A9F8322000F089F801E0012010BD0020ED
:1010B000FCE770B50446FFF745FFD020FFF714FFAB
:1010C000FFF788FF2046FFF70FFFFFF783FFFFF7CB
:1010D00039FFD120FFF708FFFFF77CFF0020FFF763
:1010E000CDFE0546FFF752FF284670BD2DE9F041C1
:1010F00006460F4614461D46FFF724FF002141EA2D
:101100004601C8B2FFF7F0FEFFF764FF20B1FFF71A
:101110003DFF0120BDE8F0813846FFF7E5FEFFF70F
:1011200059FFFFF70FFF012101EB4601C8B2FFF79E
:10113000DBFEFFF74FFF0DE0012C04D10020FFF78D
:101140009DFE287003E00120FFF798FE2870601EC6
:10115000C4B26D1C002CEFD1FFF718FF0020D9E7B7
:1011600010B50446E006010E1C2000F043F810BD47
:1011700010B50446E006010E1B2000F03BF810BD40
:1011800070B504460025BC2C01DB012510E0622C63
:1011900001DB02250CE02A2C01DB032508E0142CDE
:1011A00001DB042504E00A2C01DB052500E006250F
:1011B00029461A2000F01EF870BD70B50446B4F53B
:1011C0007A7F01DD4FF47A74042C00DA04244FF4A2
:1011D0007A7090FBF4F0401EC5B22946192000F049
:1011E00009F80546264604EBD671C1F34F00FFF718
:1011F000C7FF70BD70B505460C46FFF7A3FED020B3
:10120000FFF772FEFFF7E6FE18B1FFF7BFFE012001
:1012100070BD2846FFF768FEFFF7DCFE2046FFF7AB
:1012200063FEFFF7D7FE18B1FFF7B0FE0120EFE72E
:10123000FFF7ACFE0020EBE72DE9F04105460E4636
:1012400017469846FFF77EFE002141EA4501C8B2E5
:10125000FFF74AFEFFF7BEFE20B1FFF797FE012021
:10126000BDE8F0813046FFF73FFEFFF7B3FE0024F4
:101270000CE018F80400FFF737FEFFF7ABFE18B1DB
:10128000FFF784FE0120EBE7601CC4B2BC42F0DB38
:10129000FFF77CFE0020E3E700BFFEE72DE9F04109
:1012A00004460F4615461E4621464FF0804001F089
:1012B00069F939464FF0804001F066F929464FF050
:1012C000804001F063F931464FF0804001F060F951
:1012D000BDE8F0817047000070B5002100230F22A7
:1012E000C47804B3154C246804F4E064C4F5E064E5
:1012F000210AC1F10403CA40447804FA03F1847856
:101300001440214309010E4C0678A155047804F0DD
:101310001F050124AC4005786D11AD0005F1E025F5
:10132000C5F8004109E0047804F01F050124AC4031
:10133000044D0678761145F8264070BD0CED00E0AE
:1013400000E400E080E100E002490143024A11604C
:10135000704700000000FA050CED00E008B5002021
:1013600003461E4A014600901D4804F01DFA002065
:1013700003461C4A014600901B4804F015FA4FF042
:101380007A501A4B4FF07C5200210090184804F01C
:101390000BFA1848154B184A00210090174804F022
:1013A00003FA002003460F4A01460090144804F057
:1013B000FBF914490A4804F007FA12490A4804F0F4
:1013C00003FA10490A4804F0FFF90E490B4804F0EB
:1013D000FBF90D490A4804F0F7F908BD0000204068
:1013E000080100200000404038010020A69B443B3B
:1013F00068010020CDCC4C3E9A99993E980100207E
:10140000C80100200000FA43000048437047000074
:1014100029B1064AD2690243044BDA6104E0034A67
:10142000D2698243014BDA6170470000001002402C
:1014300029B1064A12690243044B1A6104E0034AC7
:1014400012698243014B1A6170470000001002408C
:1014500029B1064A92690243044B9A6104E0034AA7
:1014600092698243014B9A6170470000001002406C
:1014700029B1064AD2680243044BDA6004E0034A09
:10148000D2688243014BDA607047000000100240CE
:1014900030B500210022002400232D4D6D6805F099
:1014A0000C0121B1042905D0082923D105E0294DDB
:1014B000056022E0274D05601FE0254D6D6805F4AD
:1014C0007012234D6D6805F48034022505EB9242BD
:1014D0001CB9214D554305600BE01D4D6D6805F4A9
:1014E00000351DB11C4D5543056002E0194D5543B3
:1014F000056002E0174D056000BF00BF144D6D6828
:1015000005F0F0010909154D6B5C0568DD4045608B
:101510000F4D6D6805F4E061090A104D6B5C45687C
:10152000DD4085600A4D6D6805F46051C90A0B4DB8
:101530006B5C4568DD40C560054D6D6805F4404154
:10154000890B074D6B5CC568B5FBF3F5056130BDD4
:101550000010024000127A0000093D00E200002065
:10156000F2000020704710B500F002F810BD000036
:101570000CB50020019000903348006840F48030A2
:101580003149086000BF3048006800F40030009026
:101590000198401C0190009818B90198B0F5A06F0F
:1015A000F1D12948006800F4003010B1012000900A
:1015B00001E0002000900098012843D123480068F2
:1015C00040F01000214908600846006820F0030040
:1015D00008600846006840F0020008601A48406849
:1015E000194948600846406848600846406840F429
:1015F000806048600846406820F47C1048600846D7
:10160000406840F4E81048600846006840F0807088
:10161000086000BF0C48006800F000700028F9D096
:101620000948406820F003000749486008464068C0
:1016300040F00200486000BF0348406800F00C0022
:101640000828F9D10CBD0000001002400020024023
:10165000042808D14FF0E021096941F004014FF05E
:10166000E022116107E04FF0E021096921F0040157
:101670004FF0E022116170477047000010B5134829
:10168000006840F0010011490860084640681049B0
:1016900008400E494860084600680E4908400B495A
:1016A00008600846006820F480200860084640680A
:1016B00020F4FE0048604FF41F008860FFF753FFDE
:1016C0004FF000600449086010BD000000100240A7
:1016D0000000FFF8FFFFF6FE08ED00E0F0B50C4655
:1016E000154600220021068C4FF6FE773E40068408
:1016F000028B018C4FF60C7632407E1C06EA0316F4
:101700002E433243104EB0420ED0104EB0420BD09A
:10171000B0F1804F08D00E4EB04205D00D4EB04211
:1017200002D00D4EB04206D14FF6FD76314044F066
:101730000106314305E04FF6F576314044F00106ED
:10174000314302830184F0BD002C0140003401408C
:101750000004004000080040000C0040F0B50C46BA
:101760001546002200210026078C4FF6EF7C07EA81
:101770000C070784028B018C4FF6FF7707EA0416EB
:1017800040F6FF473A404FF6FF7707EA03373A4300
:101790004FF6FF7707EA05273A43114FB8420ED0BC
:1017A000104FB8420BD0B0F1804F08D00E4FB84266
:1017B00005D00E4FB84202D00D4FB84206D14FF6B9
:1017C000DF77394046F01007394305E04FF65F7781
:1017D000394044F01007394302830184F0BD000012
:1017E000002C01400034014000040040000800408B
:1017F000000C0040F0B50C461546002200210026E2
:10180000078C4FF6FF6C07EA0C070784828B018C6C
:101810004FF6FF7707EA04264FF60C773A404FF66B
:10182000FF7707EA03172F433A43114FB8420ED010
:10183000104FB8420BD0B0F1804F08D00E4FB842D5
:1018400005D00E4FB84202D00D4FB84206D14FF628
:10185000FF57394046F48077394305E04FF2FF5790
:10186000394044F48077394382830184F0BD00001D
:10187000002C0140003401400004004000080040FA
:10188000000C0040F0B50C46154600220021002651
:10189000078C4EF6FF7C07EA0C070784828B018CCD
:1018A0004FF6FF7707EA043640F6FF473A404FF617
:1018B000FF7707EA05273A434FF6FF7707EA033732
:1018C0003A43114FB8420ED0104FB8420BD0B0F18E
:1018D000804F08D00E4FB84205D00E4FB84202D00C
:1018E0000D4FB84206D14DF6FF77394046F4805788
:1018F000394305E047F6FF57394044F480573943F0
:1019000082830184F0BD0000002C014000340140BE
:101910000004004000080040000C00402DE9F041A8
:101920000121564800F035FC00287DD001215348A4
:1019300000F01FFB524A5349534802F041FEFFF7A3
:10194000FBF952490880524A52495348FFF7A4F91B
:10195000524A53495348FFF7C7F95248B0F90000BB
:1019600004F0A8FF054650480168284604F002FE2E
:10197000044604F063FF00B24A4908800846B0F903
:10198000000004F0DAFA0646484A494B04F04EF9E2
:10199000044604F0A3FA00B2424908804048B0F976
:1019A000000004F087FF054642480168284604F01D
:1019B000E1FD044604F042FF00B2394908800846C0
:1019C000B0F9000004F0B9FA0646384A384B04F082
:1019D0002DF9044604F082FA00B2314908802F48FC
:1019E000B0F9000004F066FF054633480168284658
:1019F00004F0C0FD044604F021FF00B2274908802E
:101A00000846B0F9000004F098FA0646274A284B29
:101A100004F00CF9044604F061FA00B21F49088092
:101A200019480068184900E01FE008601548006880
:101A30001449086012480068114908600120FEF747
:101A4000B7FE1E48007888B11D480088401C1C491C
:101A500008800846008814280ED100200880194804
:101A60000068C0431849C1F8BC0105E000201449D2
:101A70000880012013490860BDE8F081002C014076
:101A80001C00002018000020140000202C00002062
:101A90002400002022000020200000202A00002036
:101AA00028000020260000206C000020FCA9F1D2B4
:101AB0004D6230407000002074000020780000204B
:101AC00068000020BC0121420000214230B589B0ED
:101AD00005460C4601210846FFF79AFC0121042027
:101AE000FFF7B6FC0F20ADF8200018208DF823007A
:101AF00003208DF8220008A92B48FEF7CEFFADF891
:101B00001850ADF814400020ADF81A00ADF81600DA
:101B100005A94FF0804000F06BFD6020ADF8040097
:101B20000120ADF806000020ADF80C0001A94FF02F
:101B3000804000F09FFB01A94FF0804000F0F8FBCF
:101B400001A94FF0804000F05FFC01A94FF08040F8
:101B500000F0C0FC0821C80600F0E1FB0821C8061F
:101B600000F045FC0821C80600F0ABFC0821C806BF
:101B700000F0FBFC0121880700F0FEF900214FF086
:101B8000804000F0FFFC00214FF0804000F0FCFCA2
:101B900000214FF0804000F0F9FC00214FF0804020
:101BA00000F0F6FC09B030BD0008014030B585B04A
:101BB00005460C4601210420FFF72AFC01210820DC
:101BC000FFF746FC4FF47070ADF8100028208DF838
:101BD000130004A92F48FEF760FF4FF470712D48E1
:101BE000FFF72EF8ADF80850ADF804400020ADF82E
:101BF0000A00ADF8060001A9274800F0F9FC002012
:101C0000264908804880012088800020C8800881FB
:101C1000214800F0CFFA04202049088000204880A5
:101C2000012088800020C88008811B4800F0C2FA8B
:101C300008201A4908800020488001208880002060
:101C4000C8800881144800F0B5FA0C2013490880B8
:101C500000204880012088800020C88008810E482C
:101C600000F0A8FA1E208DF8000000208DF8010079
:101C700001208DF803006846FFF72EFB01221E218C
:101C8000054800F0EDFA0121034800F075F905B0B0
:101C900030BD0000000C014000080040F8010020A9
:101CA00010B59948007800F08000002846D1022144
:101CB000964800F06EFA002840D00221934800F0C8
:101CC00058F99148007800F0400040B38F4800F088
:101CD00053FA8F490880084600888E49098888424F
:101CE00004DA4FF6FF708C49086002E000208A4950
:101CF00008608748008887490988401A864909682A
:101D00000844864908600846008885490880002004
:101D10007D49087000217D4800F0F8FA0EE07B480C
:101D200000F02AFA7B4908807748007840F04000AC
:101D3000754908700221754800F0E8FA7948007882
:101D400000F08000002846D10421704800F021FAFC
:101D5000002840D004216D4800F00BF9714800784C
:101D600000F0400040B3694800F009FA6E4908806D
:101D7000084600886D490988884204DA4FF6FF70EA
:101D80006B49086002E000206949086066480088E5
:101D900066490988401A6649096808446549086027
:101DA000084600886449088000205E4908700021C8
:101DB000564800F00FFB0EE0544800F0E0F95B4994
:101DC00008805848007840F04000564908700221C9
:101DD0004E4800F0FFFA5948007800F080000028D3
:101DE00045D10821494800F0D4F980B3082147487B
:101DF00000F0BFF85148007800F0400040B343487D
:101E000000F0C0F94E490880084600884D4909880D
:101E1000884204DA4FF6FF704B49086002E0002068
:101E2000494908604648008846490988401A464999
:101E30000968084445490860084600884449088004
:101E400000203E4908700021304800F02DFB0EE0D4
:101E50002E4800F097F93B4908803848007840F058
:101E60004000364908700221284800F01DFB39481F
:101E7000007800F08000A8BB1021244800F089F908
:101E800080B31021214800F074F83248007800F047
:101E9000400040B31D4800F078F92F4908800846FB
:101EA00000882E490988884204DA4FF6FF702C49D1
:101EB000086002E000202A49086027480088274976
:101EC0000988401A264909680844264908600846D6
:101ED00000882549088000201E49087000210B4811
:101EE00000F036FB0EE0094800F04FF91B4908806E
:101EF0001848007840F04000164908700221034855
:101F000000F026FB10BD0000A000002000080040EB
:101F1000A4000020A2000020C8000020B80000207B
:101F20009A000020A6000020AA000020A80000209F
:101F3000CC000020BC00002098000020AC00002055
:101F4000B0000020AE000020D0000020C000002023
:101F50009C000020B2000020B6000020B400002049
:101F6000D4000020C40000209E000020CA4302824A
:101F70007047CA430282704721B1028842F00102D1
:101F8000028004E002884FF6FE731A400280704718
:101F900010B504466848844208D10121C014FFF7F7
:101FA00067FA0021E014FFF763FAC4E0B4F1804F50
:101FB00008D101210846FFF73BFA00210120FFF775
:101FC00037FAB8E05D48844208D101210220FFF7CA
:101FD0002FFA00210220FFF72BFAACE05848844288
:101FE00008D101210420FFF723FA00210420FFF784
:101FF0001FFAA0E05348844208D101210820FFF7CE
:1020000017FA00210820FFF713FA94E04E488442A3
:1020100008D101211020FFF70BFA00211020FFF753
:1020200007FA88E04948844208D101212020FFF7BF
:10203000FFF900212020FFF7FBF97CE044488442AF
:1020400008D101214014FFF713FA00216014FFF7B3
:102050000FFA70E03F48844209D10121C804FFF71C
:1020600007FA00214FF40020FFF702FA63E03A4834
:10207000844209D101210805FFF7FAF900214FF444
:102080008010FFF7F5F956E03448844209D1012168
:102090004805FFF7EDF900214FF40010FFF7E8F9CC
:1020A00049E02F48844208D101214020FFF7C0F9C0
:1020B00000214020FFF7BCF93DE02A48844208D1C6
:1020C00001218020FFF7B4F900218020FFF7B0F94B
:1020D00031E02548844208D101218015FFF7A8F995
:1020E0000021A015FFF7A4F925E02048844209D17A
:1020F00001210804FFF7BCF900214FF48030FFF7FD
:10210000B7F918E01A48844209D101214804FFF7C1
:10211000AFF900214FF40030FFF7AAF90BE01548A2
:10212000844208D101218804FFF7A2F900214FF46D
:102130008020FFF79DF910BD002C014000040040F5
:1021400000080040000C0040001000400014004057
:1021500000340140004C0140005001400054014057
:1021600000180040001C00400020004000400140DA
:1021700000440140004801400146888E70470146F6
:10218000088F70470146888F70470146B1F84000BC
:10219000704730B50246002000230024158A05EA66
:1021A0000103958905EA010413B10CB1012000E097
:1021B000002030BD70B505460C46244885420ED03F
:1021C000234885420BD0B5F1804F08D02148854285
:1021D00005D02148854202D02048854200D100E048
:1021E00000BF208850B92389A28861882846FFF75C
:1021F00075FAE188284600F0CEF925E02088042809
:102200000AD12389A28861882846FFF7A7FAE188C6
:10221000284600F0C9F917E0208808280AD1238948
:10222000A28861882846FFF7E5FAE188284600F091
:10223000C8F909E02389A28861882846FFF722FBB4
:10224000E188284600F0C6F970BD0000002C01406E
:10225000003401400004004000080040000C004031
:102260001AB183890B43838102E083898B43838185
:102270007047000070B5002400220023058C4FF643
:10228000FE7635400584028C8388048B4FF68F756B
:102290002C40B51E2C400D882C43751E2A400D89FC
:1022A0002A434D882A43144DA8420BD0134DA8420F
:1022B00008D0134DA84205D0124DA84202D0124DAD
:1022C000A84213D14FF6F7752A404D892A434FF69D
:1022D000FB752A408D882A434FF6FF652B404FF649
:1022E000FF552B408D892B43CD892B43838004835D
:1022F000CD888586028470BD002C014000340140E9
:102300000040014000440140004801400A460021CD
:10231000018C4FF6FD7319401143018470470A4642
:102320000021018B4FF6F773194011430183704769
:1023300070B5002400220023058C4FF6EF7635405F
:102340000584028C8388048B48F6FF752C404FF679
:10235000FF452C400D884FF6FF7606EA05252C43F5
:102360004FF6DF752A400D8906EA05152A434D8888
:1023700006EA05152A43154DA84202D0144DA8427D
:102380001DD14FF67F752A404D894FF6FF7606EA3C
:1023900005152A434FF6BF752A408D8806EA0515B4
:1023A0002A434FF6FF352B404FF2FF752B408D89A6
:1023B00006EA85052B43CD8906EA85052B438380F4
:1023C0000483CD880587028470BD0000002C014085
:1023D000003401400A460021018C4FF6DF7319409A
:1023E0004FF6FF7303EA02131943018470470A464C
:1023F0000021018B4FF2FF7319404FF6FF7303EA80
:10240000022319430183704770B500240022002382
:10241000058C4FF6FF6635400584028C8388848BDB
:102420004FF68F752C404FF6FC752C400D882C43D1
:102430004FF6FF552A400D894FF6FF7606EA05252F
:102440002A434D8806EA05252A43154DA84202D0A5
:10245000144DA8421DD14FF2FF752A404D894FF609
:10246000FF7606EA05252A434FF6FF352A408D8878
:1024700006EA05252A434EF6FF752B404DF6FF75FB
:102480002B408D8906EA05152B43CD8906EA0515F3
:102490002B4383808483CD888587028470BD0000B0
:1024A000002C0140003401400A460021018C4FF607
:1024B000FF5319404FF6FF7303EA022319430184C7
:1024C00070470A460021818B4FF6F773194011437C
:1024D0008183704770B5002200230024058C4EF6DE
:1024E000FF7635400584038C8488828B48F6FF751F
:1024F0002A404FF6FF452A400D884FF6FF7606EA40
:1025000005252A434DF6FF752B400D8906EA053552
:102510002B434D8806EA05352B430B4DA84202D0CC
:102520000A4DA84208D14BF6FF752C408D894FF615
:10253000FF7606EA85152C4384808283CD88A0F837
:102540004050038470BD0000002C01400034014065
:102550000A460021018C4DF6FF7319404FF6FF73B8
:1025600003EA02331943018470470A460021818B34
:102570004FF2FF7319404FF6FF7303EA022319432A
:1025800081837047818670470187704781877047D4
:10259000A0F840107047028B4FF6F3731A40028385
:1025A000028B0A4302837047028B4FF2FF331A40BB
:1025B0000283028B4FF6FF7303EA01231A4302835F
:1025C0007047828B4FF6F3731A408283828B0A43E3
:1025D00082837047828B4FF2FF331A408283828B53
:1025E0004FF6FF7303EA01231A438283704700000A
:1025F000002202881D4B98420ED01D4B98420BD0F2
:10260000B0F1804F08D01B4B984205D01A4B98422E
:1026100002D01A4B984204D14FF68F731A404B8860
:102620001A43174B984207D0164B984204D04FF6E6
:10263000FF431A40CB881A4302808B8883850B881E
:1026400003850A4B98420BD0094B984208D00E4B99
:10265000984205D00D4B984202D00D4B984201D1C3
:102660000B7A03860123838270470000002C01400F
:10267000003401400004004000080040000C00400D
:1026800000100040001400400040014000440140A0
:10269000004801407FB505460C460121C802FEF7FF
:1026A000D7FE1648FFF774FCADF80850ADF80440AB
:1026B0000020ADF80600ADF80A008DF80C0001A965
:1026C0000E48FFF795FF19208DF8000001208DF8C6
:1026D00001008DF802008DF803006846FEF7FCFD4E
:1026E00001210648FFF742FC012211460348FFF78B
:1026F000B7FD01210148FFF73FFC7FBD002C0140E1
:1027000010B540F225511D4800F04AF810B31B489F
:1027100000F002F9C4B21A48008800F40040C8B9B9
:102720001748008800F4804060B10A2C03D00020D4
:102730001349088020E01248008840F40040104906
:10274000088019E00D2C06D10D48008840F4804027
:102750000B49088010E00A480088C0F30D000949C1
:102760000C5407480088401C05490880084600882A
:10277000C72801DD0020088010BD0000003801409E
:10278000E00000200202002021B1828942F40052C0
:10279000828104E082894DF6FF731A40828170477E
:1027A00070B50246002400230025002040F66A167A
:1027B000B14200D100BFC1F3421501F01F03012651
:1027C00006FA03F3012D02D19689334006E0022D6B
:1027D00002D1168A334001E0968A33400C1201265A
:1027E00006FA04F41688344013B10CB1012000E05D
:1027F000002070BDF0B5034600240026002500200F
:1028000040F66A17B94200D100BF1846C1F342141E
:1028100001F01F06012707FA06F5012C01D10C3043
:1028200004E0022C01D1103000E014301AB1076826
:102830002F43076002E00768AF430760F0BD000068
:102840002DE9F04786B005460E460024A24600BF9B
:10285000A1460027B08900B100BF2F462C8A4CF654
:10286000FF700440F08804432C82AC894EF6F310CC
:102870000440B08831890843718908430443AC811E
:10288000AC8A4FF6FF400440B0890443AC8201A8F3
:10289000FEF7FEFD1F48874202D1DDF810A001E0DF
:1028A000DDF80CA0A88900F4004040B10AEBCA0092
:1028B00000EB0A1031684900B0FBF1F807E00AEBC1
:1028C000CA0000EB0A1031688900B0FBF1F86420FF
:1028D000B8FBF0F004012009642101FB1089A889EC
:1028E00000F4004040B1322000EBC900B0FBF1F031
:1028F00000F00700044308E0322000EB09106421D7
:10290000B0FBF1F000F00F0004432C8106B0BDE8ED
:10291000F08700000038014001468888C0F30800B5
:10292000704700BFFEE7490050EAC12018BF0420ED
:102930004A0D18BF40F0010040F2FF72B2EB515F48
:1029400008BF40F00200012808BF052070472DE9AC
:10295000F0414F1E00EBC7010446D1E900011546C6
:102960001E4637F006020DD02A46334603F0FCFA25
:102970007F1E04EBC703D3E9002303F0A7F837F069
:102980000602F1D1022F25D0042F13D0062F18BF35
:10299000BDE8F0812A46334603F0E6FAD4E90A237B
:1029A00003F094F82A46334603F0DEFAD4E908230C
:1029B00003F08CF82A46334603F0D6FAD4E906230E
:1029C00003F084F82A46334603F0CEFAD4E9042310
:1029D00003F07CF82A46334603F0C6FAD4E9022312
:1029E00003F074F82A46334603F0BEFAD4E9002314
:1029F000BDE8F04103F06AB8012204F060B903F0C9
:102A000065B8002213461046114603F00FB90000C6
:102A1000024A0020110704F052B9000001FDFFFF37
:102A200030380A2801D20120704700207047014643
:102A300000BF70472DE9FE4F06460F460025684649
:102A400001F0DCF9002442E056F8240057F8241085
:102A5000A0EB010ABAF1000F01DB514601E0CAF117
:102A60000001084603F026FF83464FF08F4103F034
:102A7000EFFD80465DF82400002103F0ABFE16D088
:102A80005DF82410404603F0E3FD82464FF07E518E
:102A900004F06EF8814629F0004A0F48416A50461A
:102AA00004F034F812D20120A04005430EE00A4899
:102AB000C169404603F02AFF05D30748016A404632
:102AC00004F024F802D20120A0400543641C032C2A
:102AD000BADB2846BDE8FE8F746D00082DE9F04D85
:102AE0008D4F21F0004A86B005460C46BA452ADBD8
:102AF000AAEB070028430AD08848824501DC1AD196
:102B0000CDB106B02846BDE8F04DFFF775BF844A49
:102B1000844B284603F028FA07460E46824A834B28
:102B20002846214603F020FA06B03A463346BDE86F
:102B3000F04D02F0CBBF0120FDF72AFD06B0BDE845
:102B4000F04DFFF75EBF7A48824542DABAF1795F0D
:102B50000BDA2846FFF7E7FE042808BFFFF758FF07
:102B6000284606B02146BDE8F08D2A460B461046A1
:102B700003F0FAF9834602466E480E460B460621DC
:102B80007844FFF7E4FE5A46334603F0EDF98046F9
:102B900069488A465A46334604217844FFF7D7FEEF
:102BA0005A46334603F0E0F900223B4602F08EFF1E
:102BB00002460B464046514603F038F82A46234663
:102BC00003F0D2F906B02A462346BDE8F04D02F0E4
:102BD0007DBF284624F0004100223D463B4603F0DD
:102BE000C1FA4FF0FF3204F06AF806460246534835
:102BF0000F460B4606217844FFF7A9FE32463B46B6
:102C000003F0B2F9CDE900014D4832463B460421BC
:102C10007844FFF79CFE32463B4603F0A5F90022BC
:102C20002B4602F053FF834602913046394602F0AC
:102C3000A5FE804643480D46504517DCDDE90001FE
:102C40005A46029B02F0F2FF42462B4603F08CF9F3
:102C500042462B4602F03AFF012204F030F8304A97
:102C6000304B03F071FB304A304B4CE04FF0000A20
:102C700052460B46404602F029FFCDE9031052466A
:102C80002B461046194603F06FF932463B4603F0D7
:102C900069FADDE9033202F0C9FF06460F46DDE9B5
:102CA00000015A46029B02F0C1FF834600910122B7
:102CB0003046394604F003F8194A1A4B03F052FA29
:102CC00006460F4601224046294603F0F8FF5A46C1
:102CD000009B03F049F932463B4603F035FB0646BC
:102CE0000F4601225046294603F0E9FF0E4DDFF85A
:102CF00058802A46434603F035FA32463B4603F0F5
:102D000031FA2A46434603F02DFA002CD8BF81F051
:102D1000004106B0BDE8F08D0000F03F0000F07FFC
:102D2000075C143326A6913C182D4454FB21F93F2F
:102D30000000E03F244E00003A4E0000AE4D00007F
:102D4000C44D00003333EF3FFB21E93F2DE9F84F3D
:102D500004460D4621F0004000917349814211DC88
:102D60007249884201DC06D12CB120462946BDE8D3
:102D7000F84FFFF741BE6E48002DCCBF6D496E493C
:102D8000BDE8F88F6D49814211DD6D498142D8BFA0
:102D90004FF0FF366DDD20462946FFF7C4FD0428BD
:102DA00008BFFFF735FE20462946BDE8F88F654984
:102DB000654F25F00045814233DD6449814219DDCC
:102DC000002632464FF080432046294602F07EFE20
:102DD00080468A4601222046294603F070FF0022E1
:102DE0003B4603F0B1FA4246534602F01FFF044649
:102DF0000D463EE001260022BA463B4620462946C3
:102E000002F064FE80460F460022534620462946C3
:102E100003F09AFA42463B4602F008FF04460D468C
:102E200027E04B4981421BDDDFF828A10226002262
:102E300053462046294603F097F800223B4602F00D
:102E400045FE80460F46002253462046294603F0A1
:102E50007BFA42463B4602F0E9FE04460D4608E096
:102E6000032622462B4600203B4902F0DFFE0446A3
:102E70000D4622462B461046194603F075F88B4640
:102E8000824602460B4603F06FF807460246334877
:102E900088460B4606217844FFF759FD52465B46AB
:102EA00003F062F882462E488B463A464346052197
:102EB0007844FFF74CFD3A46434603F055F8024686
:102EC0000B46002E504659460CDA02F0FFFD224612
:102ED0002B4603F049F801B022462B46BDE8F04FDF
:102EE00003F040B902F0F2FD22462B4603F03CF815
:102EF0001C4A7A4402EBC603D3E9002303F024FA08
:102F000022462B4603F020FA174A7A4402EBC60306
:102F1000D3E9002303F026F9009A002AB8BF81F014
:102F20000041BDE8F88F0000000010440000F07F71
:102F3000182D4454FB21F93FFB21F9BF0000DC3F71
:102F40000000203E0000F33F0000F03F0000E63F9D
:102F5000008003400000F83F0000F0BFC64B0000B7
:102F6000844B0000224B0000EA4A00002DE9F04D9E
:102F70009446CCF1000423F000464CEA0404524F7E
:102F800046EAD4749A46884621F00042BC4206D8EC
:102F9000454240EA050442EAD474BC4204D9BDE883
:102FA000F04D6246FFF72BBDAAF14055A5F17F65B4
:102FB00055EA0C040BD0022404EAAA74434DDFF84E
:102FC00010E144EAD87452EA000B04D00CE0BDE8EA
:102FD000F04DFFF7BBBE002C14BF012CBDE8F08DF7
:102FE000022C30D0032C32D056EA0C0B0AD0BE4251
:102FF00020D1BA4209D126F0804622F080423346E1
:10300000114617E000291ADB25E0DFF8C8B0FB44C1
:10301000002C04BFDBE90001BDE8F08D012C02BFEC
:10302000DBE9000181F00041BDE8F08D022C0AD0FF
:10303000032C0CD0BA4212D1B8F1000F0BDA23489E
:103040002549BDE8F08D28462449BDE8F08D284685
:103050007146BDE8F08D1D482149BDE8F08D921BF9
:1030600012153C2AC4BF19481D490EDCBAF1000FE5
:10307000BEBF12F13C0F0020014606DB624602F0A3
:10308000D5FD21F00041FFF761FE002C08BFBDE82F
:10309000F08D012C04BF81F00041BDE8F08D114A94
:1030A000114B022C07D003F04FF92A46BDE8F04D32
:1030B0000A4B03F049B903F047F92A46BDE8F04D41
:1030C000064B03F04FB800000000F07F182D445469
:1030D000FB2109C07E4A0000FB21F9BFFB2109400A
:1030E000FB21F93F075C143326A6A13C2DE9F041F2
:1030F0000446E07800F0C006E07800F03F05607814
:1031000000F0010098B1EF102846E91705EB517166
:10311000C910A5EBC101491C01F0FF080B4800686C
:1031200020B10A48414602683846904700BF60789F
:1031300000F0080030B10548406818B1B011034AEA
:10314000516888470020BDE8F0810000F8000020A9
:1031500010B56FF00400FEF77BFA0A4800680A49D0
:10316000B0FBF1F0094908700846007800EB400117
:10317000C1EBC0104FF6FF7101EAC000044908809E
:1031800010BD00000000002000127A00D8000020CE
:10319000DA0000200146114A12884A434FF0E0232A
:1031A0005A6100229A611A46126942F001021A61BC
:1031B00000BF4FF0E022106900F001021AB100F4E4
:1031C0008032002AF5D04FF0E022126922F001028D
:1031D0004FF0E0231A6100229A617047DA00002064
:1031E0000146114A12784A434FF0E0235A61002207
:1031F0009A611A46126942F001021A6100BF4FF04B
:10320000E022106900F001021AB100F48032002AB5
:10321000F5D04FF0E022126922F001024FF0E023D6
:103220001A6100229A617047D800002038B5044620
:1032300064B120208DF8000028208DF80100302096
:103240008DF8020038208DF8030004E0A322042149
:103250006846FDF715F96A46042140F69E2002F003
:1032600063FA01F04DFE38BD3EB5044602208DF8EC
:103270000000CA208DF80100E3208DF8020009202B
:103280008DF803006A460421682002F04DFAA3205D
:103290008DF8000004F0400048B1C0208DF8010016
:1032A000C8208DF80200C2208DF8030006E0A3209C
:1032B0008DF801008DF802008DF8030004F4C07051
:1032C00048B1C4208DF80400CC208DF80500C6203C
:1032D0008DF8060006E0A3208DF804008DF80500A7
:1032E0008DF80600A3208DF807008DF808008DF8F2
:1032F00009006A460A2140F6A72002F015FA04F0F8
:10330000030018B120208DF8000002E0D8208DF8CD
:1033100000006A46012140F6B62002F005FA04F0EA
:10332000200018B1012000F0ADF802E0002000F00C
:10333000A9F804F4C07008B304F4807060B1B2203E
:103340008DF800008B208DF80100B6208DF802006A
:103350009B208DF803000BE0B0208DF8000080204A
:103360008DF80100B4208DF8020090208DF8030044
:103370006A46042140F6A22002F0D6F904F00100CA
:1033800020B3F8208DF800006A4601214FF40B604D
:1033900002F0CAF9FA21072000F02CFC072000F007
:1033A000F3FB012000F013FC642000F0F3FC4FF469
:1033B000FA7000F002FDC821304800F0A3FB28207D
:1033C00000F0BCFB0A2000F0CCFB08E0D8208DF810
:1033D00000006A4601214FF40B6002F0A5F904F0E9
:1033E000020018B1D9208DF8000002E0D8208DF835
:1033F00000006A46012140F23D7002F095F904F0A8
:10340000040018B1012000F069F802E0002000F08B
:1034100065F804F0100018B10120FFF707FF02E083
:103420000020FFF703FF44F008001549488101F030
:1034300067FD00201249887304F0400018B1084667
:10344000807B801D887304F4C07020B10C48807BA1
:10345000801D0B49887304F0140020B10848807B5C
:1034600010300749887304F0030020B10448807BC2
:10347000001D0349887300203EBD000009E3CA0215
:10348000F80000203EB504466CB10EA1D1E9002041
:103490008968CDE9002002916A4609214FF49760BE
:1034A00002F042F93EBD0AA2D2E900109268CDE9CD
:1034B000010200916A4609214FF4976002F034F945
:1034C000F0E70000B8AAB38DB4980D355D00000098
:1034D000B8AAAAAAB088C3C5C700000038B5044678
:1034E00064B1C0208DF80000C2208DF80100C42016
:1034F0008DF80200C6208DF8030004E08B22042121
:103500006846FCF7BDFF6A46042140F6982002F0A9
:103510000BF901F0F5FC38BD10B5C8234FF48062FB
:10352000024940F6F63001F07FFB10BD9C6D0008AB
:103530002DE9F04F8DB00746884615469946DDE9DE
:10354000166B0024002030806B49887B5A4605A901
:1035500001F036FC18B1601E0DB0BDE8F08F664872
:10356000807A00F01400002867D09DF8140000064F
:103570009DF8151040EA01409DF8161040EA012020
:103580009DF81710084328609DF8180000069DF864
:10359000191040EA01409DF81A1040EA01209DF8F8
:1035A0001B10084368609DF81C0000069DF81D1064
:1035B00040EA01409DF81E1040EA01209DF81F10CE
:1035C0000843A8609DF8200000069DF8211040EAFD
:1035D00001409DF8221040EA01209DF82310084385
:1035E000E86004F11000C4B2286800140190686813
:1035F00000140290A86800140390E8680014049076
:1036000001984043029901FB0100039901FB01006D
:10361000049901FB010ABAF1706F02DBBAF1885F0D
:1036200005DD01F06DFC00203080401E94E7B6F906
:10363000000040F48070308000BF2F48807A00F096
:10364000400020B305A9601C085C095D40EA012028
:1036500000B2A8F8000005A9E01C095C05AAA01C9E
:10366000105C41EA002000B2A8F8020005A9601D24
:10367000095C201D105C41EA002000B2A8F804009B
:10368000A01DC4B2B6F9000040F0080030801A480E
:10369000408900F4C07008B305A9601C085C095D8E
:1036A00040EA012000B2388005A9E01C095C05AAA7
:1036B000A01C105C41EA002000B2788005A9601DC2
:1036C000095C201D105C41EA002000B2B880A01DFA
:1036D000C4B2B6F9000040F0700030800648807A2D
:1036E00000F0030018B105A90819FFF7FFFC4846D0
:1036F00000F02CFF00202FE7F800002070B588B004
:10370000064601A801F0E4F8BDF804000021C90351
:1037100041EA5045C4034448007A00F0030056F8DB
:10372000200005904048007A00F0040010B1059890
:10373000404205903C48007AC0F3C10056F8200092
:1037400006903948007A00F0200010B106984042F7
:1037500006903548007AC0F3811056F82000079093
:103760003148008900F4807010B1079840420790FA
:103770000598C117A0FB042301FB043100FB0510D1
:10378000810041EA927005900698C117A0FB0423BE
:1037900001FB043100FB0510810041EA92700690A4
:1037A0000798C117A0FB042301FB043100FB05109F
:1037B000810041EA927007900598000E8DF808008C
:1037C0000598000C8DF809000598000A8DF80A008C
:1037D0000598C0B28DF80B000698000E8DF80C000D
:1037E0000698000C8DF80D000698000A8DF80E0062
:1037F0000698C0B28DF80F000798000E8DF81000E3
:103800000798000C8DF811000798000A8DF8120037
:103810000798C0B28DF8130002AA0C214FF425704E
:1038200001F082FF08B070BDF800002030B585B00F
:10383000044616A207CA02AB07C3C82C03DD4FF02B
:10384000FF3005B030BDC82090FBF4F0401E85B2BB
:10385000280A8DF80000E8B28DF801006A460221BE
:1038600040F2162001F060FF10B14FF0FF30E8E7A2
:1038700002AA0C2140F6C12001F056FF10B14FF012
:10388000FF30DEE7044884810020DAE7FEF2ABC4B3
:10389000AAF1DFDFBBAFDFDFF80000201FB5044671
:1038A0004848007A00F0030054F820000190454891
:1038B000007A00F0040010B10198404201904148A4
:1038C000007AC0F3C10054F8200002903D48007A0D
:1038D00000F0200010B10298404202903948007A6E
:1038E000C0F3811054F8200003903648008900F49A
:1038F000807010B10398404203903349019880FBD7
:103900000101800F40EA810001902F49029880FB5D
:103910000110820042EA917002902B49039880FBCB
:103920000110820042EA917003900198000E8DF818
:1039300000000198000C8DF801000198000A8DF834
:1039400002000198C0B28DF803006A4604214FF4CA
:10395000747001F0E9FE18B14FF0FF3004B010BDF3
:103960000298000E8DF800000298000C8DF80100FE
:103970000298000A8DF802000298C0B28DF8030088
:103980006A4604214FF4757001F0CEFE10B14FF07D
:10399000FF30E3E70398000E8DF800000398000C59
:1039A0008DF801000398000A8DF802000398C0B258
:1039B0008DF803006A4604214FF4767001F0B4FEDE
:1039C000CCE70000F800002009E3CA0210B586B079
:1039D000044647A00068039046A00068029046A0F5
:1039E0000068019045A00068009004F0030003A95E
:1039F000085C8DF8140003A8C4F3C101405C8DF885
:103A0000150003A8C4F38111405C8DF8160004F082
:103A1000030002A9085C8DF8100002A8C4F3C101DC
:103A2000405C8DF8110002A8C4F38111405C8DF850
:103A3000120005AA032140F2264001F075FE18B1DC
:103A40004FF0FF3006B010BD04AA032140F22A4017
:103A500001F06AFE10B14FF0FF30F3E701980590D6
:103A60000098049004F0040058B19DF8140040F050
:103A700001008DF814009DF8100040F001008DF851
:103A8000100004F0200058B19DF8150040F001002E
:103A90008DF815009DF8110040F001008DF811001F
:103AA00004F4807058B19DF8160040F001008DF8C4
:103AB00016009DF8120040F001008DF8120005AAD2
:103AC00003214FF4886001F02FFE10B14FF0FF305A
:103AD000B8E704AA032140F2314001F025FE10B1FD
:103AE0004FF0FF30AEE7064804810020AAE700004F
:103AF0004CCD6C000CC92C0036567600264666006C
:103B0000F8000020F8B505460E464FF47A7095FB94
:103B1000F0F000FB06F4200E8DF80000200C8DF86C
:103B20000100200A8DF80200E0B28DF803006A4619
:103B300004214FF4AE7001F0F7FDF8BD38B504462E
:103B4000052094FBF0F084B220128DF80000E0B262
:103B50008DF801006A4602214FF4AD7001F0E4FDDA
:103B600038BD38B50446052094FBF0F084B220122D
:103B70008DF80000E0B28DF801006A4602214FF492
:103B8000AC7001F0D1FD38BD38B50446002000907E
:103B900004F0010020B19DF8000040F030000090DA
:103BA00004F0020020B19DF8000040F00C000090ED
:103BB00004F0040020B19DF8000040F003000090E4
:103BC0006A4601214FF4A47001F0AEFD38BD38B54E
:103BD0000446012C01DA012402E0042C00DD042457
:103BE000601EC0B200906A46012140F24F1001F001
:103BF0009BFD38BD2DE9FC4706460F4606F0070041
:103C000010B1B7F5C86F03DD4FF0FF30BDE8FC879A
:103C1000384602F067FE8146594902F019FD804698
:103C2000684600F02FFE9DF80000022806D0042808
:103C300016D0082826D0102848D135E04FF08D4105
:103C4000404602F097FE814602F014FE84B24D49D0
:103C5000404602F08FFE814602F00CFE85B238E04D
:103C60004FF08C41404602F085FE814602F002FE94
:103C700084B24549404602F07DFE814602F0FAFDDD
:103C800085B226E04FF08B41404602F073FE81463C
:103C900002F0F0FD84B23D49404602F06BFE8146E1
:103CA00002F0E8FD85B214E04FF08A41404602F090
:103CB00061FE814602F0DEFD84B23549404602F0E5
:103CC00059FE814602F0D6FD85B202E04FF0FF308A
:103CD0009CE700BF20128DF80400E0B28DF80500CB
:103CE00028128DF80600E8B28DF8070006F00100F2
:103CF000A0B101AA02214FF4EA7001F015FD10B144
:103D00004FF0FF3082E70DF1060202214FF492706E
:103D100001F00AFD10B14FF0FF3077E706F0020026
:103D2000A0B101AA02214FF4EC7001F0FDFC10B12A
:103D30004FF0FF306AE70DF1060202214FF4947054
:103D400001F0F2FC10B14FF0FF305FE706F0040025
:103D5000A0B101AA02214FF4EE7001F0E5FC10B110
:103D60004FF0FF3052E70DF1060202214FF496703A
:103D700001F0DAFC10B14FF0FF3047E7002045E7D3
:103D800000004843000040460000C0450000404598
:103D90000000C04438B50446052094FBF0F085B21D
:103DA00028128DF80000E8B28DF801006A46022161
:103DB0004FF4EF7001F0B8FC38BD38B5044605206B
:103DC00094FBF0F085B228128DF80000E8B28DF86F
:103DD00001006A4602214FF4ED7001F0A5FC38BDE8
:103DE00000BF054A128802F04002002AF9D0C2B290
:103DF000014B1B1D1A807047003801407CB50546F9
:103E000028494968087801AB04220D21FDF76EF9B5
:103E100008B107207CBD9DF80700C0F301109DF894
:103E2000041001F0E00140EAE1008DF800009DF887
:103E30000700C0F381009DF8051001F0E00140EAA1
:103E4000E1008DF801009DF8070000F003009DF8E7
:103E5000061001F0E00140EAE1008DF802000024C4
:103E60001CE01DF8040018B9002045F8240013E0F8
:103E70000D4845F8240006E055F824000B4902F0EF
:103E800079FD45F824001DF80400401EC0B20DF86D
:103E900004000028F0D100BF601CC4B2032CE0DB9A
:103EA0000020B7E7300000207B14AE3E1D5A843F4F
:103EB0002DE9F04F87B005460C46914601208DF85C
:103EC000100000208DF81100FE4A1268917CFD4A16
:103ED0005268107804AB0222FDF7AEF920B14FF022
:103EE000FF3007B0BDE8F08FC820FFF753F900207E
:103EF0008DF81000F34A1268D17BF24A52681078AC
:103F000004AB0122FDF798F910B14FF0FF30E8E75C
:103F1000EC4A12685179EB4A5268107804AB0122DE
:103F2000FDF78AF910B14FF0FF30DAE7E54A126881
:103F3000917CE44A5268107804AB0122FDF77CF9C9
:103F400010B14FF0FF30CCE7DE4A1268D17DDD4A78
:103F50005268107804AB0122FDF76EF910B14FF0F2
:103F6000FF30BEE7D74A12681179D64A52681078F6
:103F700004AB0122FDF760F910B14FF0FF30B0E75C
:103F80000C208DF81000CF4A12681179CD4A526882
:103F9000107804AB0122FDF74FF910B14FF0FF305C
:103FA0009FE70F20FFF7F6F8C648806A407A8DF841
:103FB0001000C44A12689178C24A5268107804AB63
:103FC0000122FDF739F910B14FF0FF3089E7BD4804
:103FD000806A007A8DF81000BA4A12685178B94A9E
:103FE0005268107804AB0122FDF726F910B14FF0AA
:103FF000FF3076E7B9F1000F07D0B248806A807AC7
:1040000040F0E0008DF8100004E0AE48806A807A4D
:104010008DF81000AB4A12689179AA4A526810785C
:1040200004AB0122FDF708F910B14FF0FF3058E75B
:10403000B9F1000F07D0A348806AC07A40F0E000D1
:104040008DF8100003E0A048C07A8DF810009D4A5A
:104050001268D1799B4A5268107804AB0122FDF7AF
:10406000EBF810B14FF0FF303BE7B9F1000F02D091
:10407000C820FFF78FF840208DF81000914A126891
:104080001179904A5268107804AB0122FDF7D4F8F8
:1040900010B14FF0FF3024E778208DF81000894AE6
:1040A00012685179874A5268107804AB0122FDF7F3
:1040B000C3F810B14FF0FF3013E783498889FFF749
:1040C00069F800208DF810007E4A126851797D4A07
:1040D0005268107804AB0122FDF7AEF810B14FF032
:1040E000FF30FEE6774A1268917A764A5268107875
:1040F00004AB0222FCF7FAFF10B14FF0FF30F0E6FC
:104100009DF811009DF8101040EA012B0C209BFB3C
:10411000F0F0C6B20020A86068602860A06060600F
:104120002060824665E0674A1268D17A654A526823
:10413000107804AB0C22FCF7D9FF10B14FF0FF3020
:10414000CFE69DF811009DF8101040EA012000B262
:10415000ADF808009DF813009DF8121040EA012008
:1041600000B2ADF80A009DF815009DF8141040EA61
:10417000012000B2ADF80C00BDF908102068084419
:104180002060BDF90A10606808446060BDF90C1039
:10419000A0680844A0609DF817009DF8161040EA3A
:1041A000012000B2ADF800009DF819009DF818102C
:1041B00040EA012000B2ADF802009DF81B009DF816
:1041C0001A1040EA012000B2ADF80400BDF9001059
:1041D000286808442860BDF90210686808446860CF
:1041E000BDF90410A8680844A8600AF1010000F0B5
:1041F000FF0AB24597DB3448D0F800C02868C117E1
:10420000090441EA10410704624600233846FCF7DE
:1042100002F832460023CDE90201FBF7FCFF2860DB
:104220002948D0F800C06868C117090441EA104164
:104230000704624600233846FBF7EDFF32460023B1
:10424000CDE90201FBF7E7FF68601F48D0F800C026
:10425000A868C117090441EA104107046246002317
:104260003846FBF7D8FF32460023CDE90201FBF7C1
:10427000D2FFA8601448D0F804C02168C817000411
:1042800040EA11480F046246002338464146FBF7D6
:10429000C2FF32460023CDE90201FBF7BCFF2060DC
:1042A0000948D0F804C06068C117090441EA104108
:1042B0000704624600233846FBF7ADFF3246002371
:1042C00004E0000030000020746D0008CDE9020118
:1042D000FBF7A1FF60601148D0F804C0A068C117C7
:1042E000090441EA10410704624600233846FBF7FF
:1042F00092FF32460023CDE90201FBF78CFFA0605C
:10430000A068002804DDA068A0F58030A06003E06C
:10431000A06800F58030A0600020E2E5746D000820
:104320002DE9FC5F06460F4600253D49496808789F
:1043300001AB03220D21FCF7D9FE10B10720BDE827
:10434000FC9F9DF8040000F01F008DF804009DF80C
:10435000050000F01F008DF805009DF8060000F034
:104360001F008DF80600002456E056F8240057F888
:104370002410A0EB010BBBF1000F01DB594601E05B
:10438000CBF10001084602F095FA4FF08F41009002
:1043900002F05EF9814601A8005D68B32149086812
:1043A00002F0A0FA834659461F4802F051F98046B0
:1043B00004E01E49404602F0DDFA804601A8005D97
:1043C000401EC0B201A908550028F2D14146484616
:1043D00002F03EF983464FF07E5102F0C9FB82465F
:1043E0002AF0004B0F488169584602F08FFB12D229
:1043F0000120A04005430EE00A480169484602F04A
:1044000085FA05D307484169484602F07FFB02D28E
:104410000120A0400543641C032CA6DB28468EE740
:1044200030000020746D000800B04C4554E3853F17
:1044300010B50446204600F00FF80346E01C00F0DB
:104440000BF843EAC00083B2A01D00F005F843EA70
:10445000801083B2184610BD014691F90020002A51
:1044600001DD00201EE091F90020002A01DA04207D
:1044700018E091F90120002A01DD012012E091F9F4
:104480000120002A01DA05200CE091F90220002A1F
:1044900001DD022006E091F90220002A01DA06205F
:1044A00000E00720704700004FF4A060FCF74CFFCD
:1044B000234801F089FAFEF74BFEFCF7C7FB4721C2
:1044C0004FF6FF70FDF772FB472144F62060FDF7C1
:1044D000FDFA4FF47A731A4619461846FCF7DEFEC9
:1044E0000020184908604FF47A70FEF753FE4FF42D
:1044F0007A70FEF74FFE4FF47A70FEF74BFE00BF66
:104500001148008840F23D418842F9DC01200D4904
:104510000860FCF723FFFCF78FFD02E01420FEF794
:1045200039FE00F05FF90028F8D1472142F20F7000
:10453000FEF7B0F802E00A20FEF72CFEFBE70000D1
:1045400020A10700BC0121429C0000207047000010
:1045500070B50446002624F00104184890F82400A1
:1045600008B1002070BD1548807A10B94FF0FF30B7
:10457000F8E71248057C807A204010490874084604
:10458000007CA04202D04FF0FF3600E0002614B9B4
:104590000A48007D18B1012001F0A8F902E00020CE
:1045A00001F0A4F93CB100F0ABFC20B10348057464
:1045B0004FF0FF30D6E73046D4E70000300000204F
:1045C0002DE9F04F99B004460D4616464FF07E5740
:1045D0004FF000084FF000094FF0000A12A813A98D
:1045E00018AB0EAACDE9001014A916A8FEF7A0FF7B
:1045F00018B1012019B0BDE8F08FBDF84C0000F4EF
:10460000807000287ED00E9802F054F983464FF057
:104610009D4102F01DF807460F9802F04BF98346C2
:104620004FF09D4102F014F88046109802F042F9D4
:1046300083464FF09D4102F00BF88146119802F03D
:1046400039F983464FF09D4102F002F8824639461F
:104650004FF0804002F08EF94946059002F08AF949
:10466000414607904FF0404002F084F951460590D2
:1046700002F080F90690079901F07CFF834601F073
:104680004DFFCDE90801FEF729FA4FF06632544B91
:10469000CDE90A0101F068FCCDE90C0101F0E4F973
:1046A000206049464FF0804002F064F9494602908C
:1046B00002F060F9414604904FF0404002F05AF990
:1046C0004146029002F056F90390049902F050FA24
:1046D00083464FF07E5101F04DFF059001F01EFF23
:1046E000CDE9080139464FF0804002F043F94146D8
:1046F000039002F03FF9494604904FF0804002F0E9
:1047000039F900E068E05146039002F033F983463E
:10471000049901F02FFF059001F000FFCDE906019B
:10472000DDE90823FEF722FC4FF066322C4BCDE981
:104730000A0101F019FCCDE90C0101F095F928609E
:104740005146504602F016F949460490484602F098
:1047500011F941460390404602F00CF939460190A8
:10476000384602F007F90090019901F003FF02902A
:10477000039902F0FDF98346049902F0F9F90590D6
:1047800001F0CCFECDE908015146384602F0F2F8BE
:1047900049460490404602F0EDF80390049901F078
:1047A000E9FE4FF08041059002F0E4F8834601F005
:1047B000B5FECDE90601DDE90823FEF7D7FB4FF092
:1047C0006632074BCDE90A0101F0CEFBCDE90C01C1
:1047D00001F04AF9306001E002200BE7002009E710
:1047E00066A64C4070B50024FCF706FB00F024F9E7
:1047F000002840D1782000F02FFFC4B20CB1012076
:1048000070BD7820FFF7A4FEC4B20CB10220F7E718
:10481000642000F0D3FEC4B20CB10320F0E7FEF731
:104820007BFEC4B20CB10420EAE71548FFF700FE96
:104830000546FFF7CBF8C4B20CB10520E0E740F223
:104840007310FEF711FDC4B20CB10620D8E7642046
:10485000FEF7ECFFC4B20CB10720D1E700F0FCFF7B
:1048600004460CB10820CBE7012000F0A3FDC4B240
:104870001CB10920C4E70A20C2E70020C0E70000FD
:104880005C00002001461148407A30B1012807D071
:10489000022808D003280CD108E0022008700BE0A1
:1048A0000420087008E00820087005E01020087057
:1048B00002E04FF0FF30704700BF0448C07C18B1E1
:1048C00008784006000E08700020F4E73000002051
:1048D00001461348407A30B1012808D002280AD096
:1048E000032810D10BE04FF4804008800EE041F621
:1048F0009C7008800AE04FF48050088006E04FF476
:104900000060088002E04FF0FF30704700BF0448AD
:10491000C07C10B10888401008800020F5E7000036
:104920003000002001460248007C087000207047DB
:104930003000002001460F48007A30B1012807D02E
:10494000022809D003280FD10AE0FA2008800EE0DF
:104950004FF4FA7008800AE04FF47A70088006E09D
:104960004FF4FA60088002E00020088000BF00BF1A
:10497000002070473000002001460E48007A30B118
:10498000012807D0022808D003280CD108E00A48E3
:1049900008600BE00948086008E00948086005E085
:1049A0000848086002E04FF0FF30704700BF002069
:1049B000FBE70000300000200000034300008342BA
:1049C000333303423333834101461248C07A082807
:1049D00017D2DFE800F01704070A0D101318BC20E7
:1049E000088013E06220088010E02A2008800DE093
:1049F000142008800AE00A20088007E005200880CB
:104A000004E000BF00BF0020088000BF00BF0020FE
:104A100070470000300000200146064890F824004E
:104A200010B14FF0FF3070470248C0890880002065
:104A3000F9E70000300000201CB580208DF8000050
:104A4000654A1268917C644A526810786B4601226C
:104A5000FCF7F2FB10B14FF0FF301CBD6420FEF7F5
:104A600099FB00208DF800005B4A1268917C5A4A3D
:104A7000526810786B460122FCF7DEFB10B14FF054
:104A8000FF30EAE7544A1268917D534A5268107821
:104A90006B460622FCF72AFB10B14FF0FF30DCE733
:104AA0009DF80500C007400F9DF8031001F00101BB
:104AB00040EA41009DF8011001F0010140EA0104C3
:104AC00094B1012C03D101214348C17431E0022C7F
:104AD00003D100214048C1742BE021463FA0FBF7E1
:104AE000BFFB4FF0FF30B8E73B4A1268D1783A4A33
:104AF000526810786B460122FCF7F8FA10B14FF0BB
:104B0000FF30AAE79DF8000000F00F042CB93D48E3
:104B1000FBF7A6FB4FF0FF309FE7042C06D13AA02D
:104B2000FBF79EFB01212C48C17402E000212A48BA
:104B3000C174FF2128488172FF2027490872FF2194
:104B400025484172C1724FF6FF71C181FF21017486
:104B500081740121017380F82210002180F8231054
:104B6000417501751630016041608160163880F82A
:104B7000241080F82510C1844FF4FA6000F062FC24
:104B800010B14FF0FF3068E7022000F02BFB10B1AE
:104B90004FF0FF3061E72A2000F0CEFC10B14FF05B
:104BA000FF305AE7322000F009FD10B14FF0FF301E
:104BB00053E70020FFF7CCFC10B14FF0FF304CE77B
:104BC000002000F051FB10B14FF0FF3045E700200E
:104BD00000F042FD002040E730000020556E737564
:104BE00070706F7274656420736F6674776172653C
:104BF0002070726F64756374207265762025642E50
:104C00000A000000987A000848616C662073656E9F
:104C10007369746976697479207061727420666F43
:104C2000756E642E0A0000002DE9F04385B005463C
:104C30000E4690469946294890F8250020B14FF03D
:104C4000FF3005B0BDE8F08316B94FF0FF30F8E74C
:104C5000002423E0281B102801DD102000E0281B81
:104C600087B232193946204600F05EFD10B14FF090
:104C7000FF30E6E701AA3946204600F001F910B1FD
:104C80004FF0FF30DDE730193A4601A9FBF7CCFBC6
:104C900010B16FF00100D4E7E01984B2AC42D9DB67
:104CA0004FEA28208DF8000008F0FF008DF8010081
:104CB0000A4A1268917E094A526810786B460222AD
:104CC000FCF7BAFA10B14FF0FF30BAE70121034800
:104CD00080F82510A0F826900020B2E730000020D0
:104CE00038B50446282C02DD4FF0FF3038BDDCB962
:104CF000002000F0EBFB00208DF8000007208DF86D
:104D000001002E4A1268917C2C4A526810786B463A
:104D10000222FCF791FA10B14FF0FF30E6E70021D4
:104D2000264801750020E1E7012000F0CFFB20209C
:104D30008DF80000012C06D100208DF8010005201F
:104D400000F0FAFB17E0052C06DC01208DF80100CD
:104D5000052000F0F1FB0EE0142C06DC02208DF89B
:104D600001000A2000F0E8FB05E003208DF80100B7
:104D7000142000F0E1FB9DF80100072101EB8010F9
:104D8000C0B28DF801000D4A1268917C0B4A52683E
:104D900010786B460222FCF74FFA10B14FF0FF304B
:104DA000A4E70821054881720021017301210175E2
:104DB0000020FFF7CDFB002098E700003000002026
:104DC000F8B504460F4616462C4890F8240010B952
:104DD0004FF0FF30F8BD2948807A10B94FF0FF300E
:104DE000F8E7264A1268917A244A526810786B468E
:104DF0000222FCF77BF910B14FF0FF30EAE79DF893
:104E000001009DF8001040EA0125A54203DA0020C8
:104E10003070401EDEE7194840684088B5EB600FEF
:104E200017DD164A1268517C144A526810786B4696
:104E30000122FCF75BF910B14FF0FF30CAE79DF893
:104E4000000000F0100020B100F05AF86FF00100EF
:104E5000C0E7E2B2094B1B68D97A084B5B68187847
:104E60003B46FCF743F910B14FF0FF30B2E795FB3A
:104E7000F4F0401E30700020ACE70000300000204D
:104E8000F8B504460D46164616B94FF0FF30F8BD8A
:104E90001A48807A10B94FF0FF30F8E720128DF8E9
:104EA0000000E0B28DF801009DF80100284413498C
:104EB00049684989884202DD4FF0FF30E7E70F4A31
:104EC0001268117E0D4A526810786B460222FCF778
:104ED000B3F910B14FF0FF30D9E7EAB2074B1B68C6
:104EE000597D064B5B6818783346FCF7FFF810B124
:104EF0004FF0FF30CBE70020C9E700003000002072
:104F000008B57048807A10B94FF0FF3008BD002016
:104F100000906C4A1268D17B6A4A526810786B46DE
:104F20000122FCF789F910B14FF0FF30EEE7654A36
:104F300012685179634A526810786B460122FCF777
:104F40007BF910B14FF0FF30E0E75E4A126811794B
:104F50005C4A526810786B460122FCF76DF910B17B
:104F60004FF0FF30D2E7574890F82400002853D084
:104F70000C200090534A12681179524A52681078F6
:104F80006B460122FCF758F910B14FF0FF30BDE736
:104F90003220FEF7FFF8C02000904A48807A00F0E7
:104FA000010020B19DF8000040F020000090454A2B
:104FB00012681179434A526810786B460122FCF757
:104FC0003BF910B14FF0FF30A0E73E48407C10B1F4
:104FD0000220009001E0002000903A4A1268D17B44
:104FE000384A526810786B460122FCF725F910B157
:104FF0004FF0FF308AE700200090324A1268517962
:10500000304A526810786B460122FCF715F90028E7
:1050100055D04FF0FF3079E704200090294A1268FC
:105020001179284A526810786B460122FCF704F97E
:1050300010B14FF0FF3069E72248807C20B9214849
:10504000807A00F0010010B94020009001E060205B
:1050500000901C4A126811791A4A526810786B46FF
:105060000122FCF7E9F810B14FF0FF304EE7322093
:10507000FEF790F81348407C10B10120009001E049
:10508000002000900F4A1268D17B0E4A52681078B7
:105090006B460122FCF7D0F810B14FF0FF3035E736
:1050A000084A12685179074A52681078054B103344
:1050B0000122FCF7C1F810B14FF0FF3026E70020C5
:1050C00024E70000300000202DE9F04F8DB083462A
:1050D0000F4602200C90424890F8240020B1002096
:1050E00000F068F9012600E0002603A8FFF722FC83
:1050F00005A8FFF7C7FB01A8FFF766FC02A8FFF7AA
:105100008BFC374890F80AA004A8FFF70BFC00249A
:1051100007E0002239465846FEF7CAFE00B902E011
:10512000641C022CF5DB00BF022C01D1002528E015
:10513000002407E0012206A909A8FEF7B9FE00B97C
:1051400002E0641C022CF5DB00BF022C01D100251B
:1051500017E006A93846FDF76DFC00F0FF0809A925
:105160005846FFF7DDF800F0FF090025B9F1000F00
:1051700001D145F00105B8F1000F01D145F002055C
:1051800000BFFF2016490872FF2115484172C17205
:105190004FF6FF71C181FF218172017401210173FA
:1051A000BDF80C0000F04EF99DF8140000F01AF85C
:1051B000BDF8040000F0C0F9BDF8080000F0FEF9E9
:1051C000504600F049FA9DF81000FFF7C1F916B1FA
:1051D000012000F0EFF828460DB0BDE8F08F000088
:1051E0003000002038B504461E48807A10B94FF0D0
:1051F000FF3038BD022C06D0042C07D0082C08D074
:10520000102C0CD108E0002000900BE0082000904A
:1052100008E01020009005E01820009002E04FF018
:10522000FF30E6E700BF0F48407A9DF80010B0EB72
:10523000E10F01D10020DCE70A4A1268D179094A5E
:10524000526810786B460122FBF7F6FF10B14FF061
:10525000FF30CEE79DF80000C110024841720020E7
:10526000C7E700003000002038B504465048807C75
:10527000A04201D1002038BD002C46D04C4A126813
:1052800011794B4A526810786B460122FBF72EFFCA
:1052900010B14FF0FF30EEE79DF8000020F0200045
:1052A0000090434A12681179414A526810786B465F
:1052B0000122FBF7C1FF10B14FF0FF30DBE7032005
:1052C000FDF768FF02200090394890F8220020B1D5
:1052D0009DF8000040F080000090354890F82300D1
:1052E00020B19DF8000040F030000090304A126874
:1052F000117D2F4A526810786B460122FBF79CFF04
:10530000002851D04FF0FF30B5E7294A12681179D3
:10531000274A526810786B460122FBF7E7FE10B16E
:105320004FF0FF30A7E72248807A00F0010028B153
:105330009DF8000040F02000009004E09DF800007F
:1053400020F0200000901A4A12681179184A526819
:1053500010786B460122FBF76FFF10B14FF0FF3062
:1053600089E70320FDF716FF114890F8220010B1DD
:105370008020009001E0002000900D4890F823006C
:1053800020B19DF8000040F030000090084A1268FB
:10539000117D074A526810786B460122FBF74CFFDB
:1053A00010B14FF0FF3066E701488474002062E7D7
:1053B0003000002038B50446214890F82400A0426F
:1053C00001D1002038BD24B31D4890F8250010B944
:1053D0004FF0FF30F6E7002000F088FA0020FFF7DA
:1053E00043FF1749C88C00F0E9F8002000901449E9
:1053F000496808786B4601222321FBF71DFF012134
:105400000F4880F82410012000F070FAFFF778FDB3
:1054100013E0002000F06AFA0948007C0090084977
:10542000496808786B4601222321FBF705FF00211C
:10543000034880F82410FFF763FD0020C2E7000056
:105440003000002038B504461F48807A10B94FF06C
:10545000FF3038BDFA2C09D0B4F5FA7F09D0B4F585
:105460007A7F09D0B4F5FA6F0CD108E000200090E3
:105470000BE00820009008E01020009005E01820C4
:10548000009002E04FF0FF30E3E700BF0E48007AE3
:105490009DF80010B0EBE10F01D10020D9E70A4AD6
:1054A00012689179084A526810786B460122FBF71E
:1054B000C3FE10B14FF0FF30CBE79DF80000C010E5
:1054C000014908720020C4E73000002038B50446C6
:1054D000184890F82300A04201D1002038BD14B133
:1054E0003020009001E0002000901248807C20B124
:1054F0009DF8000040F0020000900E4890F8220055
:1055000020B19DF8000040F080000090094A126828
:10551000117D084A526810786B460122FBF78CFE19
:1055200010B14FF0FF30D9E7024880F82340002047
:10553000D4E700003000002038B504461E48807AC9
:1055400010B94FF0FF3038BDBC2C02DB01200090B9
:1055500015E0622C02DB0220009010E02A2C02DB16
:10556000032000900BE0142C02DB0420009006E0E6
:105570000A2C02DB0520009001E0062000900E4876
:10558000C07A9DF80010884201D10020DBE70A4A6A
:1055900012689178084A526810786B460122FBF72E
:1055A0004BFE10B14FF0FF30CDE79DF800100248E0
:1055B000C1720020C7E700003000002038B5044663
:1055C0002448807A10B94FF0FF3038BD214890F858
:1055D000240010B14FF0FF30F7E71E48007D50B1B6
:1055E00034B1282C04DCE0B2FFF77AFB0020ECE7B2
:1055F0000020FFF775FB042C01DA042404E0B4F565
:105600007A7F01DD4FF47A744FF47A7090FBF4F0F6
:10561000401EC0B200900F4A126851780D4A52687D
:1056200010786B460122FBF707FE10B14FF0FF30F8
:10563000CBE79DF80000401C4FF47A7191FBF0F02D
:1056400081B20448C1810146C9894810FFF774FF3F
:105650000020BAE73000002038B5044604F070009E
:1056600010B10120009005E014B10020009001E08D
:10567000402000902B4A1268917C2A4A5268107888
:105680006B460122FBF7D8FD20B10021254881722D
:10569000481E38BD9DF8000020F0400121480173EC
:1056A0000020009004F0400020B99DF8000040F078
:1056B0000400009004F0200020B99DF8000040F0A4
:1056C0000200009004F0100020B99DF8000040F0A6
:1056D0000100009004F0080020B99DF8000040F09F
:1056E000380000900F4A1268D17C0E4A5268107838
:1056F0006B460122FBF7A0FD20B100210948817211
:10570000481EC6E724B1082C02D00020FFF7DEFEB9
:1057100004488472002101753220FDF73BFD002012
:10572000B7E7000030000020F8B504460D461646E5
:1057300016B94FF0FF30F8BD1A48807A10B94FF013
:10574000FF30F8E720128DF80000E0B28DF801007C
:105750009DF801002844134949684989884202DDBF
:105760004FF0FF30E7E70F4A1268117E0D4A52688A
:1057700010786B460222FBF75FFD10B14FF0FF304F
:10578000D9E7EAB2074B1B68597D064B5B6818786E
:105790003346FBF751FD10B14FF0FF30CBE700204F
:1057A000C9E700003000002030B5039C00254560AB
:1057B0008560C5600561016042618361C461014D1E
:1057C000C56230BD0000C842C16270472DE9F0419A
:1057D00004460F46154625603946206801F0C8F991
:1057E00060606168E06800F0C5FEE060E16AE06862
:1057F00001F08CF902D2E06AE0600BE0E06A80F030
:1058000000484046E16801F081F903D2E06A80F087
:105810000040E060D4E9010101F0AAF9206161686B
:10582000606901F0A7F82062E168A06901F0A2F8C0
:1058300060622169E06901F09DF8A062D4E9080185
:1058400000F098FE8046A16A00F094FE064660686B
:10585000A0603046BDE8F08170B588B002A905A807
:10586000FFF732FC0446032C3ED101A8FFF784F871
:10587000059801F01FF80646019901F07BF80546EE
:1058800000F0DCFF0590069801F014F80646019937
:1058900001F070F8054600F0D1FF0690079801F07E
:1058A00009F80646019901F065F8054600F0C6FFC3
:1058B000079005A8FDF7F2FF6846FFF709F8BDF865
:1058C0000010029848430290BDF800100398484326
:1058D0000390BDF8001004984843049002A8FDF717
:1058E0000DFF002008B070BD0120FBE738B504466D
:1058F000214890F82400C0B114B10220009001E0CA
:10590000002000901C4A1268D17B1B4A5268107814
:105910006B460122FBF790FC10B14FF0FF3038BD11
:105920009DF800101448417423E01348807A10B9A0
:105930004FF0FF30F3E724B10F48407C08B100205E
:10594000EDE714B10120009001E0002000900A4A28
:105950001268D17B084A526810786B460122FBF727
:105960006BFC10B14FF0FF30D9E79DF800100248F2
:1059700041740020D3E70000300000202DE9F04101
:1059800006460F4600F0FAFB041E0D4618BF012024
:10599000284320F00040C0F17F6000F1E040C00FDC
:1059A0000ED0301C18BF0120384320F00040C0F159
:1059B0007F6000F1E040C00F04BF0120FAF7E8FD6E
:1059C00020462946BDE8F08110B586B00446012185
:1059D00044F20400FBF73CFD4FF40070ADF81400F6
:1059E00003208DF8160018208DF8170005A91C4813
:1059F000FBF753F84FF48060ADF8140004208DF8E5
:105A0000170005A91648FBF748F825208DF8000077
:105A100003208DF801008DF8020001208DF80300AD
:105A20006846FBF759FC01940020ADF80800ADF87A
:105A30000A00ADF80C00ADF810000C20ADF80E0017
:105A400001A90848FCF7FCFE012240F22551054857
:105A5000FCF7D0FE01210348FCF796FE06B010BD0E
:105A6000000801400038014021F00042A2F16052DC
:105A7000B2F5801F01F0004328BFD2F17F6C0BD933
:105A80005FEA001C43EAC20242EB507018BF704745
:105A900028BF20F001007047B2F5801FBCBF184638
:105AA00070474FEA410C1CF5001F02D2084601F076
:105AB00028B870B500F002FB00000089FFF7F6BFC0
:105AC0004FF00040A0F580007047000010B591EA4B
:105AD000030F48BF83F0004300F13E84841A71EB4A
